:1000000009C021C020C01FC01EC01DC0C3C01BC06E
:100010001AC019C011241FBECFE9CDBF10E0A0E661
:10002000B0E0EAEBF3E002C005900D92A236B10712
:10003000D9F720E0A2E6B0E001C01D92A936B207D0
:10004000E1F7E5D0B8C1DCCF8091680046B34095B8
:1000500048704827809168008427809368005091F9
:100060006800542380916800811105C0411103C0CC
:1000700081E080936000552391F020916800852FE6
:1000800090E08095909530E082239323892B39F07E
:1000900080916500852B809365001092600090919F
:1000A0006000913069F480916300811109C0209152
:1000B00066008091680080958423822B809366007F
:1000C0008091680083FF02C0911105C088E0809391
:1000D00062001092630080916200815019F0809359
:1000E0006200089580E4809362009091670080919F
:1000F00068008870892B8093670081E0809363009B
:100100000895F8949091660089239091660098274D
:100110009093660078940895F894909165008923EF
:100120009091650098279093650078940895982F92
:10013000F89420916800809165008095822389233E
:1001400078940895F89490916700892390916700BE
:1001500098279093670078940895BB98C39A089560
:1001600087B3836187BBBA9886E886B9F6DF82E0F9
:100170008FBD81E083BF80E886BF89B7846089BF77
:100180007894089581E287B9369A349BFECF349AE9
:1001900085B108951F920F920FB60F9211242F93DD
:1001A0003F934F935F936F937F938F939F93AF93FF
:1001B000BF93EF93FF938091610081508093610022
:1001C00080916100811109C08FEF809361003CDF55
:1001D00080916400826080936400809161008F70E0
:1001E00029F480916400816080936400FF91EF9115
:1001F000BF91AF919F918F917F916F915F914F913F
:100200003F912F910F900FBE0F901F901895CF9395
:10021000DF93CDB7DD27C750CDBFA2DF81E08C8350
:1002200082E08D8383E08E8389838A8384E08B835D
:10023000312C55245A9420E131E041E0E12CF12C9D
:1002400070E1472EE0E48E2E99249394612C712C5A
:1002500000E010E0F0E4AF2EBB24B394A0E12A2E1E
:100260008091640080FF3FC0809164008E7F809306
:1002700064000F5F1F4F8FEF681A780A8FEFE81A3C
:10028000F80A26FF0BC02F7B632F70E0C5017FD0DB
:10029000CB01E42FF0E0BF0169D04C016814790470
:1002A00040F024FF04C0206288B3836188BB612CC6
:1002B000712C0A151B0530F0206288B3836188BB5E
:1002C00000E010E025FF0FC04A9469F42F7D88B349
:1002D0008C7E88BBC40154E0969587955A95E1F7CA
:1002E00060E1462E480E8091640081FFB9CF809175
:1002F00064008D7F8093640088E02F8302DF2F816C
:10030000882331F020645701E12CF12C00E81EE332
:1003100088E02F8317DF2F81811122252F8332DF81
:10032000382F2F81851508F4582E331608F4332EF4
:10033000632D70E06519710980E093E028D0CB014E
:100340003519632F70E012D0C92ED12CE4E0F0E013
:10035000EC0FFD1FEC0DFD1D4081E1E0F0E0EC0F26
:10036000FD1FEC0DFD1D308120647ACF0024552740
:1003700004C0080E591F880F991F009729F0769521
:100380006795B8F37105B9F7802D952F0895AA1BCD
:10039000BB1B51E107C0AA1FBB1FA617B70710F070
:1003A000A61BB70B881F991F5A95A9F780959095A2
:0A03B000BC01CD010895F894FFCFC1
:0203BA0001013F
:00000001FF
